{
    "_format": "hh-sol-artifact-1",
    "contractName": "InvoiceManager",
    "sourceName": "contracts/InvoiceManager.sol",
    "abi": [
        {
            "inputs": [],
            "stateMutability": "nonpayable",
            "type": "constructor"
        },
        {
            "inputs": [],
            "name": "InvalidAmount",
            "type": "error"
        },
        {
            "inputs": [],
            "name": "Unauthorized",
            "type": "error"
        },
        {
            "inputs": [],
            "name": "UnauthorizedPayer",
            "type": "error"
        },
        {
            "anonymous": false,
            "inputs": [
                {
                    "indexed": true,
                    "internalType": "uint256",
                    "name": "id",
                    "type": "uint256"
                },
                {
                    "indexed": true,
                    "internalType": "address",
                    "name": "client",
                    "type": "address"
                },
                {
                    "indexed": true,
                    "internalType": "address",
                    "name": "token",
                    "type": "address"
                },
                {
                    "indexed": false,
                    "internalType": "uint256",
                    "name": "amount",
                    "type": "uint256"
                },
                {
                    "indexed": false,
                    "internalType": "uint256",
                    "name": "dueDate",
                    "type": "uint256"
                },
                {
                    "indexed": false,
                    "internalType": "string",
                    "name": "category",
                    "type": "string"
                }
            ],
            "name": "InvoiceCreated",
            "type": "event"
        },
        {
            "anonymous": false,
            "inputs": [
                {
                    "indexed": true,
                    "internalType": "uint256",
                    "name": "id",
                    "type": "uint256"
                }
            ],
            "name": "InvoicePaid",
            "type": "event"
        },
        {
            "anonymous": false,
            "inputs": [
                {
                    "indexed": true,
                    "internalType": "address",
                    "name": "processor",
                    "type": "address"
                },
                {
                    "indexed": false,
                    "internalType": "bool",
                    "name": "authorized",
                    "type": "bool"
                }
            ],
            "name": "PaymentProcessorUpdated",
            "type": "event"
        },
        {
            "inputs": [
                {
                    "internalType": "address",
                    "name": "",
                    "type": "address"
                }
            ],
            "name": "authorizedPaymentProcessors",
            "outputs": [
                {
                    "internalType": "bool",
                    "name": "",
                    "type": "bool"
                }
            ],
            "stateMutability": "view",
            "type": "function"
        },
        {
            "inputs": [
                {
                    "internalType": "address",
                    "name": "client",
                    "type": "address"
                },
                {
                    "internalType": "address",
                    "name": "token",
                    "type": "address"
                },
                {
                    "internalType": "uint256",
                    "name": "amount",
                    "type": "uint256"
                },
                {
                    "internalType": "uint256",
                    "name": "dueDate",
                    "type": "uint256"
                },
                {
                    "internalType": "string",
                    "name": "category",
                    "type": "string"
                }
            ],
            "name": "createInvoice",
            "outputs": [],
            "stateMutability": "nonpayable",
            "type": "function"
        },
        {
            "inputs": [],
            "name": "getDueInvoices",
            "outputs": [
                {
                    "components": [
                        {
                            "internalType": "uint256",
                            "name": "id",
                            "type": "uint256"
                        },
                        {
                            "internalType": "address",
                            "name": "client",
                            "type": "address"
                        },
                        {
                            "internalType": "address",
                            "name": "token",
                            "type": "address"
                        },
                        {
                            "internalType": "uint256",
                            "name": "amount",
                            "type": "uint256"
                        },
                        {
                            "internalType": "uint256",
                            "name": "dueDate",
                            "type": "uint256"
                        },
                        {
                            "internalType": "bool",
                            "name": "paid",
                            "type": "bool"
                        },
                        {
                            "internalType": "string",
                            "name": "category",
                            "type": "string"
                        }
                    ],
                    "internalType": "struct InvoiceManager.Invoice[]",
                    "name": "",
                    "type": "tuple[]"
                }
            ],
            "stateMutability": "view",
            "type": "function"
        },
        {
            "inputs": [
                {
                    "internalType": "uint256",
                    "name": "invoiceId",
                    "type": "uint256"
                }
            ],
            "name": "getInvoice",
            "outputs": [
                {
                    "components": [
                        {
                            "internalType": "uint256",
                            "name": "id",
                            "type": "uint256"
                        },
                        {
                            "internalType": "address",
                            "name": "client",
                            "type": "address"
                        },
                        {
                            "internalType": "address",
                            "name": "token",
                            "type": "address"
                        },
                        {
                            "internalType": "uint256",
                            "name": "amount",
                            "type": "uint256"
                        },
                        {
                            "internalType": "uint256",
                            "name": "dueDate",
                            "type": "uint256"
                        },
                        {
                            "internalType": "bool",
                            "name": "paid",
                            "type": "bool"
                        },
                        {
                            "internalType": "string",
                            "name": "category",
                            "type": "string"
                        }
                    ],
                    "internalType": "struct InvoiceManager.Invoice",
                    "name": "",
                    "type": "tuple"
                }
            ],
            "stateMutability": "view",
            "type": "function"
        },
        {
            "inputs": [
                {
                    "internalType": "uint256",
                    "name": "",
                    "type": "uint256"
                }
            ],
            "name": "invoices",
            "outputs": [
                {
                    "internalType": "uint256",
                    "name": "id",
                    "type": "uint256"
                },
                {
                    "internalType": "address",
                    "name": "client",
                    "type": "address"
                },
                {
                    "internalType": "address",
                    "name": "token",
                    "type": "address"
                },
                {
                    "internalType": "uint256",
                    "name": "amount",
                    "type": "uint256"
                },
                {
                    "internalType": "uint256",
                    "name": "dueDate",
                    "type": "uint256"
                },
                {
                    "internalType": "bool",
                    "name": "paid",
                    "type": "bool"
                },
                {
                    "internalType": "string",
                    "name": "category",
                    "type": "string"
                }
            ],
            "stateMutability": "view",
            "type": "function"
        },
        {
            "inputs": [
                {
                    "internalType": "uint256",
                    "name": "invoiceId",
                    "type": "uint256"
                }
            ],
            "name": "markAsPaid",
            "outputs": [],
            "stateMutability": "nonpayable",
            "type": "function"
        },
        {
            "inputs": [],
            "name": "nextInvoiceId",
            "outputs": [
                {
                    "internalType": "uint256",
                    "name": "",
                    "type": "uint256"
                }
            ],
            "stateMutability": "view",
            "type": "function"
        },
        {
            "inputs": [],
            "name": "owner",
            "outputs": [
                {
                    "internalType": "address",
                    "name": "",
                    "type": "address"
                }
            ],
            "stateMutability": "view",
            "type": "function"
        },
        {
            "inputs": [
                {
                    "internalType": "address",
                    "name": "processor",
                    "type": "address"
                },
                {
                    "internalType": "bool",
                    "name": "authorized",
                    "type": "bool"
                }
            ],
            "name": "setPaymentProcessor",
            "outputs": [],
            "stateMutability": "nonpayable",
            "type": "function"
        }
    ],
    "bytecode": "0x608060405234801561001057600080fd5b50600080546001600160a01b03191633179055610e13806100326000396000f3fe608060405234801561001057600080fd5b50600436106100935760003560e01c80636ff2a953116100665780636ff2a9531461012b5780637021cafe1461014257806378909c8c146101575780637e639d721461016a5780638da5cb5b1461017d57600080fd5b806309d0586d146100985780633a23cc0a146100d05780634c6f0d00146100f05780634e6d140514610105575b600080fd5b6100bb6100a636600461096e565b60036020526000908152604090205460ff1681565b60405190151581526020015b60405180910390f35b6100e36100de366004610990565b6101a8565b6040516100c79190610a58565b6100f86102b7565b6040516100c79190610a6b565b610118610113366004610990565b610504565b6040516100c79796959493929190610acd565b61013460015481565b6040519081526020016100c7565b610155610150366004610990565b6105dd565b005b610155610165366004610b22565b6106d2565b610155610178366004610bc8565b610878565b600054610190906001600160a01b031681565b6040516001600160a01b0390911681526020016100c7565b6101b0610901565b600082815260026020818152604092839020835160e0810185528154815260018201546001600160a01b039081169382019390935292810154909116928201929092526003820154606082015260048201546080820152600582015460ff16151560a082015260068201805491929160c08401919061022e90610c04565b80601f016020809104026020016040519081016040528092919081815260200182805461025a90610c04565b80156102a75780601f1061027c576101008083540402835291602001916102a7565b820191906000526020600020905b81548152906001019060200180831161028a57829003601f168201915b5050505050815250509050919050565b60606000805b60015481101561031f5760008181526002602052604090206005015460ff161580156102fa57506000818152600260205260409020600401544210155b1561030d578161030981610c3e565b9250505b8061031781610c3e565b9150506102bd565b5060008167ffffffffffffffff81111561033b5761033b610c65565b60405190808252806020026020018201604052801561037457816020015b610361610901565b8152602001906001900390816103595790505b5090506000805b6001548110156104fb5760008181526002602052604090206005015460ff161580156103b857506000818152600260205260409020600401544210155b156104e957600081815260026020818152604092839020835160e0810185528154815260018201546001600160a01b039081169382019390935292810154909116928201929092526003820154606082015260048201546080820152600582015460ff16151560a082015260068201805491929160c08401919061043b90610c04565b80601f016020809104026020016040519081016040528092919081815260200182805461046790610c04565b80156104b45780601f10610489576101008083540402835291602001916104b4565b820191906000526020600020905b81548152906001019060200180831161049757829003601f168201915b5050505050815250508383815181106104cf576104cf610c7b565b602002602001018190525081806104e590610c3e565b9250505b806104f381610c3e565b91505061037b565b50909392505050565b6002602081905260009182526040909120805460018201549282015460038301546004840154600585015460068601805495976001600160a01b03908116979516959394929360ff909216929161055a90610c04565b80601f016020809104026020016040519081016040528092919081815260200182805461058690610c04565b80156105d35780601f106105a8576101008083540402835291602001916105d3565b820191906000526020600020905b8154815290600101906020018083116105b657829003601f168201915b5050505050905087565b6000818152600260205260409020600581015460ff16156106335760405162461bcd60e51b815260206004820152600c60248201526b105b1c9958591e481c185a5960a21b604482015260640160405180910390fd5b3360009081526003602052604090205460ff16158015610660575060018101546001600160a01b03163314155b801561067757506000546001600160a01b03163314155b15610694576040516282b42960e81b815260040160405180910390fd5b60058101805460ff1916600117905560405182907f4d6cfd329415806d53db8988cd3c035f681754c229f8d7e5183507deae65cc1690600090a25050565b836000036106f35760405163162908e360e11b815260040160405180910390fd5b6040518060e001604052806001548152602001876001600160a01b03168152602001866001600160a01b0316815260200185815260200184815260200160001515815260200183838080601f016020809104026020016040519081016040528093929190818152602001838380828437600092018290525093909452505060018054825260026020818152604093849020865181559086015192810180546001600160a01b03199081166001600160a01b03958616179091559386015191810180549094169190921617909155606083015160038201556080830151600482015560a083015160058201805460ff191691151591909117905560c083015190915060068201906108039082610ce0565b50905050846001600160a01b0316866001600160a01b03166001547fc42cc137a7bf06606c7b59fc43c02dd34f7a86e23e35de7139fedca54b8616d0878787876040516108539493929190610da0565b60405180910390a46001805490600061086b83610c3e565b9190505550505050505050565b6000546001600160a01b031633146108a2576040516282b42960e81b815260040160405180910390fd5b6001600160a01b038216600081815260036020908152604091829020805460ff191685151590811790915591519182527f5cb9ce7268ea917966028f15aff7bcab78017d9adf1cc3eb7e3b7c36e6f10fd4910160405180910390a25050565b6040518060e001604052806000815260200160006001600160a01b0316815260200160006001600160a01b031681526020016000815260200160008152602001600015158152602001606081525090565b80356001600160a01b038116811461096957600080fd5b919050565b60006020828403121561098057600080fd5b61098982610952565b9392505050565b6000602082840312156109a257600080fd5b5035919050565b6000815180845260005b818110156109cf576020818501810151868301820152016109b3565b506000602082860101526020601f19601f83011685010191505092915050565b805182526000602082015160018060a01b0380821660208601528060408501511660408601525050606082015160608401526080820151608084015260a0820151151560a084015260c082015160e060c0850152610a5060e08501826109a9565b949350505050565b60208152600061098960208301846109ef565b6000602080830181845280855180835260408601915060408160051b870101925083870160005b82811015610ac057603f19888603018452610aae8583516109ef565b94509285019290850190600101610a92565b5092979650505050505050565b8781526001600160a01b03878116602083015286166040820152606081018590526080810184905282151560a082015260e060c08201819052600090610b15908301846109a9565b9998505050505050505050565b60008060008060008060a08789031215610b3b57600080fd5b610b4487610952565b9550610b5260208801610952565b94506040870135935060608701359250608087013567ffffffffffffffff80821115610b7d57600080fd5b818901915089601f830112610b9157600080fd5b813581811115610ba057600080fd5b8a6020828501011115610bb257600080fd5b6020830194508093505050509295509295509295565b60008060408385031215610bdb57600080fd5b610be483610952565b915060208301358015158114610bf957600080fd5b809150509250929050565b600181811c90821680610c1857607f821691505b602082108103610c3857634e487b7160e01b600052602260045260246000fd5b50919050565b600060018201610c5e57634e487b7160e01b600052601160045260246000fd5b5060010190565b634e487b7160e01b600052604160045260246000fd5b634e487b7160e01b600052603260045260246000fd5b601f821115610cdb57600081815260208120601f850160051c81016020861015610cb85750805b601f850160051c820191505b81811015610cd757828155600101610cc4565b5050505b505050565b815167ffffffffffffffff811115610cfa57610cfa610c65565b610d0e81610d088454610c04565b84610c91565b602080601f831160018114610d435760008415610d2b5750858301515b600019600386901b1c1916600185901b178555610cd7565b600085815260208120601f198616915b82811015610d7257888601518255948401946001909101908401610d53565b5085821015610d905787850151600019600388901b60f8161c191681555b5050505050600190811b01905550565b84815283602082015260606040820152816060820152818360808301376000818301608090810191909152601f909201601f19160101939250505056fea2646970667358221220162225218f8400ebea2087f89588459656f185593facffdb515f382ca5acd33e64736f6c63430008150033",
    "linkReferences": {},
    "deployedLinkReferences": {}
}