{
  "_format": "hh-sol-artifact-1",
  "contractName": "TokenSwapManager",
  "sourceName": "contracts/TokenSwapManager.sol",
  "abi": [
    {
      "inputs": [
        {
          "internalType": "address",
          "name": "_router",
          "type": "address"
        },
        {
          "internalType": "address",
          "name": "_stableToken",
          "type": "address"
        }
      ],
      "stateMutability": "nonpayable",
      "type": "constructor"
    },
    {
      "inputs": [],
      "name": "InvalidAmount",
      "type": "error"
    },
    {
      "inputs": [],
      "name": "SwapFailed",
      "type": "error"
    },
    {
      "inputs": [],
      "name": "Unauthorized",
      "type": "error"
    },
    {
      "anonymous": false,
      "inputs": [
        {
          "indexed": true,
          "internalType": "address",
          "name": "user",
          "type": "address"
        },
        {
          "indexed": true,
          "internalType": "address",
          "name": "fromToken",
          "type": "address"
        },
        {
          "indexed": false,
          "internalType": "uint256",
          "name": "amountIn",
          "type": "uint256"
        },
        {
          "indexed": false,
          "internalType": "uint256",
          "name": "amountOut",
          "type": "uint256"
        },
        {
          "indexed": false,
          "internalType": "string",
          "name": "category",
          "type": "string"
        }
      ],
      "name": "TokenSwapped",
      "type": "event"
    },
    {
      "inputs": [],
      "name": "owner",
      "outputs": [
        {
          "internalType": "address",
          "name": "",
          "type": "address"
        }
      ],
      "stateMutability": "view",
      "type": "function"
    },
    {
      "inputs": [],
      "name": "router",
      "outputs": [
        {
          "internalType": "address",
          "name": "",
          "type": "address"
        }
      ],
      "stateMutability": "view",
      "type": "function"
    },
    {
      "inputs": [
        {
          "internalType": "address",
          "name": "newStable",
          "type": "address"
        }
      ],
      "name": "setStableToken",
      "outputs": [],
      "stateMutability": "nonpayable",
      "type": "function"
    },
    {
      "inputs": [],
      "name": "stableToken",
      "outputs": [
        {
          "internalType": "address",
          "name": "",
          "type": "address"
        }
      ],
      "stateMutability": "view",
      "type": "function"
    },
    {
      "inputs": [
        {
          "internalType": "address",
          "name": "fromToken",
          "type": "address"
        },
        {
          "internalType": "uint256",
          "name": "amountIn",
          "type": "uint256"
        },
        {
          "internalType": "uint256",
          "name": "amountOutMin",
          "type": "uint256"
        },
        {
          "internalType": "string",
          "name": "category",
          "type": "string"
        }
      ],
      "name": "swapToStable",
      "outputs": [],
      "stateMutability": "nonpayable",
      "type": "function"
    }
  ],
  "bytecode": "0x608060405234801561001057600080fd5b506040516107b23803806107b283398101604081905261002f91610087565b600080546001600160a01b03199081163317909155600180546001600160a01b03948516908316179055600280549290931691161790556100ba565b80516001600160a01b038116811461008257600080fd5b919050565b6000806040838503121561009a57600080fd5b6100a38361006b565b91506100b16020840161006b565b90509250929050565b6106e9806100c96000396000f3fe608060405234801561001057600080fd5b50600436106100575760003560e01c80638da5cb5b1461005c578063a9d75b2b1461008b578063db1bc87b1461009e578063f887ea40146100b3578063fc9a5762146100c6575b600080fd5b60005461006f906001600160a01b031681565b6040516001600160a01b03909116815260200160405180910390f35b60025461006f906001600160a01b031681565b6100b16100ac36600461041c565b6100d9565b005b60015461006f906001600160a01b031681565b6100b16100d436600461043e565b610125565b6000546001600160a01b03163314610103576040516282b42960e81b815260040160405180910390fd5b600280546001600160a01b0319166001600160a01b0392909216919091179055565b836000036101465760405163162908e360e11b815260040160405180910390fd5b6040516323b872dd60e01b8152336004820152306024820152604481018590526000906001600160a01b038716906323b872dd906064016020604051808303816000875af115801561019c573d6000803e3d6000fd5b505050506040513d601f19601f820116820180604052508101906101c091906104d2565b9050806101e05760405163081ceff360e41b815260040160405180910390fd5b60015460405163095ea7b360e01b81526001600160a01b039182166004820152602481018790529087169063095ea7b3906044016020604051808303816000875af1158015610233573d6000803e3d6000fd5b505050506040513d601f19601f8201168201806040525081019061025791906104d2565b9050806102775760405163081ceff360e41b815260040160405180910390fd5b60408051600280825260608201835260009260208301908036833701905050905086816000815181106102ac576102ac61050a565b6001600160a01b0392831660209182029290920101526002548251911690829060019081106102dd576102dd61050a565b6001600160a01b0390921660209283029190910190910152600061030342610258610520565b6001546040516338ed173960e01b81529192506000916001600160a01b03909116906338ed173990610341908b908b90889033908990600401610547565b6000604051808303816000875af1158015610360573d6000803e3d6000fd5b505050506040513d6000823e601f3d908101601f1916820160405261038891908101906105b8565b9050886001600160a01b0316336001600160a01b03167f6d65844b385d69082a207f772a175fbb682c5579941b0287fc36f9251676c8df8a846001815181106103d3576103d361050a565b60200260200101518a8a6040516103ed9493929190610676565b60405180910390a3505050505050505050565b80356001600160a01b038116811461041757600080fd5b919050565b60006020828403121561042e57600080fd5b61043782610400565b9392505050565b60008060008060006080868803121561045657600080fd5b61045f86610400565b94506020860135935060408601359250606086013567ffffffffffffffff8082111561048a57600080fd5b818801915088601f83011261049e57600080fd5b8135818111156104ad57600080fd5b8960208285010111156104bf57600080fd5b9699959850939650602001949392505050565b6000602082840312156104e457600080fd5b8151801515811461043757600080fd5b634e487b7160e01b600052604160045260246000fd5b634e487b7160e01b600052603260045260246000fd5b8082018082111561054157634e487b7160e01b600052601160045260246000fd5b92915050565b600060a082018783526020878185015260a0604085015281875180845260c086019150828901935060005b818110156105975784516001600160a01b031683529383019391830191600101610572565b50506001600160a01b03969096166060850152505050608001529392505050565b600060208083850312156105cb57600080fd5b825167ffffffffffffffff808211156105e357600080fd5b818501915085601f8301126105f757600080fd5b815181811115610609576106096104f4565b8060051b604051601f19603f8301168101818110858211171561062e5761062e6104f4565b60405291825284820192508381018501918883111561064c57600080fd5b938501935b8285101561066a57845184529385019392850192610651565b98975050505050505050565b84815283602082015260606040820152816060820152818360808301376000818301608090810191909152601f909201601f19160101939250505056fea2646970667358221220ec35d2b90456ce1b2e59b1a74940d7138b84398f70187942c48d77828da2a47e64736f6c63430008150033",
  "linkReferences": {},
  "deployedLinkReferences": {}
}