{
  "_format": "hh-sol-artifact-1",
  "contractName": "HedwigPayment",
  "sourceName": "src/contracts/HedwigPayment.sol",
  "abi": [
    {
      "inputs": [
        {
          "internalType": "address",
          "name": "_platformWallet",
          "type": "address"
        },
        {
          "internalType": "address[]",
          "name": "_initialTokens",
          "type": "address[]"
        }
      ],
      "stateMutability": "nonpayable",
      "type": "constructor"
    },
    {
      "inputs": [],
      "name": "InsufficientAllowance",
      "type": "error"
    },
    {
      "inputs": [],
      "name": "InvalidAddress",
      "type": "error"
    },
    {
      "inputs": [],
      "name": "InvalidAmount",
      "type": "error"
    },
    {
      "inputs": [],
      "name": "InvalidFee",
      "type": "error"
    },
    {
      "inputs": [
        {
          "internalType": "address",
          "name": "owner",
          "type": "address"
        }
      ],
      "name": "OwnableInvalidOwner",
      "type": "error"
    },
    {
      "inputs": [
        {
          "internalType": "address",
          "name": "account",
          "type": "address"
        }
      ],
      "name": "OwnableUnauthorizedAccount",
      "type": "error"
    },
    {
      "inputs": [],
      "name": "ReentrancyGuardReentrantCall",
      "type": "error"
    },
    {
      "inputs": [],
      "name": "TokenNotWhitelisted",
      "type": "error"
    },
    {
      "inputs": [],
      "name": "TransferFailed",
      "type": "error"
    },
    {
      "anonymous": false,
      "inputs": [
        {
          "indexed": true,
          "internalType": "address",
          "name": "previousOwner",
          "type": "address"
        },
        {
          "indexed": true,
          "internalType": "address",
          "name": "newOwner",
          "type": "address"
        }
      ],
      "name": "OwnershipTransferred",
      "type": "event"
    },
    {
      "anonymous": false,
      "inputs": [
        {
          "indexed": true,
          "internalType": "address",
          "name": "payer",
          "type": "address"
        },
        {
          "indexed": true,
          "internalType": "address",
          "name": "freelancer",
          "type": "address"
        },
        {
          "indexed": true,
          "internalType": "address",
          "name": "token",
          "type": "address"
        },
        {
          "indexed": false,
          "internalType": "uint256",
          "name": "amount",
          "type": "uint256"
        },
        {
          "indexed": false,
          "internalType": "uint256",
          "name": "fee",
          "type": "uint256"
        },
        {
          "indexed": false,
          "internalType": "string",
          "name": "invoiceId",
          "type": "string"
        }
      ],
      "name": "PaymentReceived",
      "type": "event"
    },
    {
      "anonymous": false,
      "inputs": [
        {
          "indexed": false,
          "internalType": "uint256",
          "name": "oldFee",
          "type": "uint256"
        },
        {
          "indexed": false,
          "internalType": "uint256",
          "name": "newFee",
          "type": "uint256"
        }
      ],
      "name": "PlatformFeeUpdated",
      "type": "event"
    },
    {
      "anonymous": false,
      "inputs": [
        {
          "indexed": true,
          "internalType": "address",
          "name": "oldWallet",
          "type": "address"
        },
        {
          "indexed": true,
          "internalType": "address",
          "name": "newWallet",
          "type": "address"
        }
      ],
      "name": "PlatformWalletUpdated",
      "type": "event"
    },
    {
      "anonymous": false,
      "inputs": [
        {
          "indexed": true,
          "internalType": "address",
          "name": "token",
          "type": "address"
        },
        {
          "indexed": false,
          "internalType": "bool",
          "name": "status",
          "type": "bool"
        }
      ],
      "name": "TokenWhitelisted",
      "type": "event"
    },
    {
      "inputs": [],
      "name": "MAX_FEE",
      "outputs": [
        {
          "internalType": "uint256",
          "name": "",
          "type": "uint256"
        }
      ],
      "stateMutability": "view",
      "type": "function"
    },
    {
      "inputs": [
        {
          "internalType": "address[]",
          "name": "tokens",
          "type": "address[]"
        },
        {
          "internalType": "bool[]",
          "name": "statuses",
          "type": "bool[]"
        }
      ],
      "name": "batchSetTokenWhitelist",
      "outputs": [],
      "stateMutability": "nonpayable",
      "type": "function"
    },
    {
      "inputs": [
        {
          "internalType": "uint256",
          "name": "amount",
          "type": "uint256"
        }
      ],
      "name": "calculateFee",
      "outputs": [
        {
          "internalType": "uint256",
          "name": "fee",
          "type": "uint256"
        },
        {
          "internalType": "uint256",
          "name": "freelancerPayout",
          "type": "uint256"
        }
      ],
      "stateMutability": "view",
      "type": "function"
    },
    {
      "inputs": [
        {
          "internalType": "address",
          "name": "token",
          "type": "address"
        },
        {
          "internalType": "uint256",
          "name": "amount",
          "type": "uint256"
        }
      ],
      "name": "emergencyRecoverToken",
      "outputs": [],
      "stateMutability": "nonpayable",
      "type": "function"
    },
    {
      "inputs": [
        {
          "internalType": "address",
          "name": "token",
          "type": "address"
        }
      ],
      "name": "isTokenWhitelisted",
      "outputs": [
        {
          "internalType": "bool",
          "name": "",
          "type": "bool"
        }
      ],
      "stateMutability": "view",
      "type": "function"
    },
    {
      "inputs": [],
      "name": "owner",
      "outputs": [
        {
          "internalType": "address",
          "name": "",
          "type": "address"
        }
      ],
      "stateMutability": "view",
      "type": "function"
    },
    {
      "inputs": [
        {
          "internalType": "address",
          "name": "token",
          "type": "address"
        },
        {
          "internalType": "uint256",
          "name": "amount",
          "type": "uint256"
        },
        {
          "internalType": "address",
          "name": "freelancer",
          "type": "address"
        },
        {
          "internalType": "string",
          "name": "invoiceId",
          "type": "string"
        }
      ],
      "name": "pay",
      "outputs": [],
      "stateMutability": "nonpayable",
      "type": "function"
    },
    {
      "inputs": [],
      "name": "platformFee",
      "outputs": [
        {
          "internalType": "uint256",
          "name": "",
          "type": "uint256"
        }
      ],
      "stateMutability": "view",
      "type": "function"
    },
    {
      "inputs": [],
      "name": "platformWallet",
      "outputs": [
        {
          "internalType": "address",
          "name": "",
          "type": "address"
        }
      ],
      "stateMutability": "view",
      "type": "function"
    },
    {
      "inputs": [],
      "name": "renounceOwnership",
      "outputs": [],
      "stateMutability": "nonpayable",
      "type": "function"
    },
    {
      "inputs": [
        {
          "internalType": "uint256",
          "name": "_fee",
          "type": "uint256"
        }
      ],
      "name": "setPlatformFee",
      "outputs": [],
      "stateMutability": "nonpayable",
      "type": "function"
    },
    {
      "inputs": [
        {
          "internalType": "address",
          "name": "_newWallet",
          "type": "address"
        }
      ],
      "name": "setPlatformWallet",
      "outputs": [],
      "stateMutability": "nonpayable",
      "type": "function"
    },
    {
      "inputs": [
        {
          "internalType": "address",
          "name": "token",
          "type": "address"
        },
        {
          "internalType": "bool",
          "name": "status",
          "type": "bool"
        }
      ],
      "name": "setTokenWhitelist",
      "outputs": [],
      "stateMutability": "nonpayable",
      "type": "function"
    },
    {
      "inputs": [
        {
          "internalType": "address",
          "name": "newOwner",
          "type": "address"
        }
      ],
      "name": "transferOwnership",
      "outputs": [],
      "stateMutability": "nonpayable",
      "type": "function"
    },
    {
      "inputs": [],
      "name": "version",
      "outputs": [
        {
          "internalType": "string",
          "name": "",
          "type": "string"
        }
      ],
      "stateMutability": "pure",
      "type": "function"
    },
    {
      "inputs": [
        {
          "internalType": "address",
          "name": "",
          "type": "address"
        }
      ],
      "name": "whitelistedTokens",
      "outputs": [
        {
          "internalType": "bool",
          "name": "",
          "type": "bool"
        }
      ],
      "stateMutability": "view",
      "type": "function"
    }
  ],
  "bytecode": "0x608060405260966002553480156200001657600080fd5b506040516200124638038062001246833981016040819052620000399162000256565b33806200006057604051631e4fbdf760e01b81526000600482015260240160405180910390fd5b6200006b81620001d3565b50600180556001600160a01b038216620000985760405163e6c4247b60e01b815260040160405180910390fd5b600380546001600160a01b0319166001600160a01b03841617905560005b8151811015620001ca5760006001600160a01b0316828281518110620000e057620000e06200033f565b60200260200101516001600160a01b031614620001b5576001600460008484815181106200011257620001126200033f565b60200260200101516001600160a01b03166001600160a01b0316815260200190815260200160002060006101000a81548160ff0219169083151502179055508181815181106200016657620001666200033f565b60200260200101516001600160a01b03167fef81a9943b96c8df4ef243401c9bf5159146166211356898b52d382086168d926001604051620001ac911515815260200190565b60405180910390a25b80620001c18162000355565b915050620000b6565b5050506200037d565b600080546001600160a01b038381166001600160a01b0319831681178455604051919092169283917f8be0079c531659141344cd1fd0a4f28419497f9722a3daafe3b4186f6b6457e09190a35050565b80516001600160a01b03811681146200023b57600080fd5b919050565b634e487b7160e01b600052604160045260246000fd5b600080604083850312156200026a57600080fd5b620002758362000223565b602084810151919350906001600160401b03808211156200029557600080fd5b818601915086601f830112620002aa57600080fd5b815181811115620002bf57620002bf62000240565b8060051b604051601f19603f83011681018181108582111715620002e757620002e762000240565b6040529182528482019250838101850191898311156200030657600080fd5b938501935b828510156200032f576200031f8562000223565b845293850193928501926200030b565b8096505050505050509250929050565b634e487b7160e01b600052603260045260246000fd5b6000600182016200037657634e487b7160e01b600052601160045260246000fd5b5060010190565b610eb9806200038d6000396000f3fe608060405234801561001057600080fd5b50600436106101005760003560e01c806399a5d74711610097578063c9bcc97e11610066578063c9bcc97e14610243578063daf9c21014610256578063f2fde38b14610279578063fa2af9da1461028c57600080fd5b806399a5d747146101c3578063b5af090f146101eb578063b9045ace14610227578063bc063e1a1461023a57600080fd5b8063715018a6116100d3578063715018a61461017057806379020194146101785780638831e9cf1461018b5780638da5cb5b1461019e57600080fd5b806312e8e2c3146101055780631a681c0d1461011a57806326232a2e1461012d57806354fd4d5014610149575b600080fd5b610118610113366004610af5565b61029f565b005b610118610128366004610b2a565b61030f565b61013660025481565b6040519081526020015b60405180910390f35b60408051808201825260058152640312e302e360dc1b602082015290516101409190610bc5565b610118610696565b610118610186366004610c13565b6106aa565b610118610199366004610c3d565b610749565b6000546001600160a01b03165b6040516001600160a01b039091168152602001610140565b6101d66101d1366004610af5565b6107ca565b60408051928352602083019190915201610140565b6102176101f9366004610c3d565b6001600160a01b031660009081526004602052604090205460ff1690565b6040519015158152602001610140565b610118610235366004610cab565b6107fb565b6101366101f481565b610118610251366004610d25565b61097d565b610217610264366004610c3d565b60046020526000908152604090205460ff1681565b610118610287366004610c3d565b610a0b565b6003546101ab906001600160a01b031681565b6102a7610a4e565b6101f48111156102ca576040516358d620b360e01b815260040160405180910390fd5b600280549082905560408051828152602081018490527fd347e206f25a89b917fc9482f1a2d294d749baa4dc9bde7fb495ee11fe491643910160405180910390a15050565b610317610a7b565b6001600160a01b03851660009081526004602052604090205460ff16610350576040516307c241ad60e51b815260040160405180910390fd5b836000036103715760405163162908e360e11b815260040160405180910390fd5b6001600160a01b0383166103985760405163e6c4247b60e01b815260040160405180910390fd5b604051636eb1769f60e11b815233600482015230602482015285906000906001600160a01b0383169063dd62ed3e90604401602060405180830381865afa1580156103e7573d6000803e3d6000fd5b505050506040513d601f19601f8201168201806040525081019061040b9190610d5c565b90508581101561042e576040516313be252b60e01b815260040160405180910390fd5b6000612710600254886104419190610d8b565b61044b9190610da8565b905060006104598289610dca565b6040516323b872dd60e01b8152336004820152306024820152604481018a90529091506000906001600160a01b038616906323b872dd906064016020604051808303816000875af11580156104b2573d6000803e3d6000fd5b505050506040513d601f19601f820116820180604052508101906104d69190610ddd565b9050806104f6576040516312171d8360e31b815260040160405180910390fd5b82156105935760035460405163a9059cbb60e01b81526001600160a01b039182166004820152602481018590529086169063a9059cbb906044016020604051808303816000875af115801561054f573d6000803e3d6000fd5b505050506040513d601f19601f820116820180604052508101906105739190610ddd565b905080610593576040516312171d8360e31b815260040160405180910390fd5b60405163a9059cbb60e01b81526001600160a01b0389811660048301526024820184905286169063a9059cbb906044016020604051808303816000875af11580156105e2573d6000803e3d6000fd5b505050506040513d601f19601f820116820180604052508101906106069190610ddd565b905080610626576040516312171d8360e31b815260040160405180910390fd5b896001600160a01b0316886001600160a01b0316336001600160a01b03167f2e1c2ab9fb8bcb1e1ac035b7c72eb16f21611eed6341548bc4ed2a4f5a28849a8c878c8c6040516106799493929190610dfa565b60405180910390a4505050505061068f60018055565b5050505050565b61069e610a4e565b6106a86000610aa5565b565b6106b2610a4e565b816001600160a01b031663a9059cbb6106d36000546001600160a01b031690565b6040516001600160e01b031960e084901b1681526001600160a01b039091166004820152602481018490526044016020604051808303816000875af1158015610720573d6000803e3d6000fd5b505050506040513d601f19601f820116820180604052508101906107449190610ddd565b505050565b610751610a4e565b6001600160a01b0381166107785760405163e6c4247b60e01b815260040160405180910390fd5b600380546001600160a01b038381166001600160a01b0319831681179093556040519116919082907ff84f6b525c89a18c80bbbc0c62a7eb5390956d6b8432ab067b49963a98f8c38f90600090a35050565b600080612710600254846107de9190610d8b565b6107e89190610da8565b91506107f48284610dca565b9050915091565b610803610a4e565b8281146108235760405163162908e360e11b815260040160405180910390fd5b60005b8381101561068f57600085858381811061084257610842610e37565b90506020020160208101906108579190610c3d565b6001600160a01b03161461096b5782828281811061087757610877610e37565b905060200201602081019061088c9190610e4d565b600460008787858181106108a2576108a2610e37565b90506020020160208101906108b79190610c3d565b6001600160a01b031681526020810191909152604001600020805460ff19169115159190911790558484828181106108f1576108f1610e37565b90506020020160208101906109069190610c3d565b6001600160a01b03167fef81a9943b96c8df4ef243401c9bf5159146166211356898b52d382086168d9284848481811061094257610942610e37565b90506020020160208101906109579190610e4d565b604051901515815260200160405180910390a25b8061097581610e6a565b915050610826565b610985610a4e565b6001600160a01b0382166109ac5760405163e6c4247b60e01b815260040160405180910390fd5b6001600160a01b038216600081815260046020908152604091829020805460ff191685151590811790915591519182527fef81a9943b96c8df4ef243401c9bf5159146166211356898b52d382086168d92910160405180910390a25050565b610a13610a4e565b6001600160a01b038116610a4257604051631e4fbdf760e01b8152600060048201526024015b60405180910390fd5b610a4b81610aa5565b50565b6000546001600160a01b031633146106a85760405163118cdaa760e01b8152336004820152602401610a39565b600260015403610a9e57604051633ee5aeb560e01b815260040160405180910390fd5b6002600155565b600080546001600160a01b038381166001600160a01b0319831681178455604051919092169283917f8be0079c531659141344cd1fd0a4f28419497f9722a3daafe3b4186f6b6457e09190a35050565b600060208284031215610b0757600080fd5b5035919050565b80356001600160a01b0381168114610b2557600080fd5b919050565b600080600080600060808688031215610b4257600080fd5b610b4b86610b0e565b945060208601359350610b6060408701610b0e565b9250606086013567ffffffffffffffff80821115610b7d57600080fd5b818801915088601f830112610b9157600080fd5b813581811115610ba057600080fd5b896020828501011115610bb257600080fd5b9699959850939650602001949392505050565b600060208083528351808285015260005b81811015610bf257858101830151858201604001528201610bd6565b506000604082860101526040601f19601f8301168501019250505092915050565b60008060408385031215610c2657600080fd5b610c2f83610b0e565b946020939093013593505050565b600060208284031215610c4f57600080fd5b610c5882610b0e565b9392505050565b60008083601f840112610c7157600080fd5b50813567ffffffffffffffff811115610c8957600080fd5b6020830191508360208260051b8501011115610ca457600080fd5b9250929050565b60008060008060408587031215610cc157600080fd5b843567ffffffffffffffff80821115610cd957600080fd5b610ce588838901610c5f565b90965094506020870135915080821115610cfe57600080fd5b50610d0b87828801610c5f565b95989497509550505050565b8015158114610a4b57600080fd5b60008060408385031215610d3857600080fd5b610d4183610b0e565b91506020830135610d5181610d17565b809150509250929050565b600060208284031215610d6e57600080fd5b5051919050565b634e487b7160e01b600052601160045260246000fd5b8082028115828204841417610da257610da2610d75565b92915050565b600082610dc557634e487b7160e01b600052601260045260246000fd5b500490565b81810381811115610da257610da2610d75565b600060208284031215610def57600080fd5b8151610c5881610d17565b84815283602082015260606040820152816060820152818360808301376000818301608090810191909152601f909201601f191601019392505050565b634e487b7160e01b600052603260045260246000fd5b600060208284031215610e5f57600080fd5b8135610c5881610d17565b600060018201610e7c57610e7c610d75565b506001019056fea2646970667358221220b0f260c0193ff329c27b837cd98988cd8b251be09ba9bf6fa6eb1bde9ae141bb64736f6c63430008140033",
  "linkReferences": {},
  "deployedLinkReferences": {}
}