{
  "_format": "hh-sol-artifact-1",
  "contractName": "HedwigPayment",
  "sourceName": "src/contracts/HedwigPayment.sol",
  "abi": [
    {
      "inputs": [
        {
          "internalType": "address",
          "name": "_platformWallet",
          "type": "address"
        }
      ],
      "stateMutability": "nonpayable",
      "type": "constructor"
    },
    {
      "inputs": [],
      "name": "InsufficientAllowance",
      "type": "error"
    },
    {
      "inputs": [],
      "name": "InvalidAddress",
      "type": "error"
    },
    {
      "inputs": [],
      "name": "InvalidAmount",
      "type": "error"
    },
    {
      "inputs": [],
      "name": "InvalidFee",
      "type": "error"
    },
    {
      "inputs": [],
      "name": "Reentrancy",
      "type": "error"
    },
    {
      "inputs": [],
      "name": "TransferFailed",
      "type": "error"
    },
    {
      "inputs": [],
      "name": "Unauthorized",
      "type": "error"
    },
    {
      "anonymous": false,
      "inputs": [
        {
          "indexed": true,
          "internalType": "address",
          "name": "payer",
          "type": "address"
        },
        {
          "indexed": true,
          "internalType": "address",
          "name": "freelancer",
          "type": "address"
        },
        {
          "indexed": false,
          "internalType": "uint256",
          "name": "amount",
          "type": "uint256"
        },
        {
          "indexed": false,
          "internalType": "uint256",
          "name": "fee",
          "type": "uint256"
        },
        {
          "indexed": false,
          "internalType": "string",
          "name": "invoiceId",
          "type": "string"
        }
      ],
      "name": "PaymentReceived",
      "type": "event"
    },
    {
      "inputs": [],
      "name": "MAX_FEE",
      "outputs": [
        {
          "internalType": "uint256",
          "name": "",
          "type": "uint256"
        }
      ],
      "stateMutability": "view",
      "type": "function"
    },
    {
      "inputs": [],
      "name": "USDC",
      "outputs": [
        {
          "internalType": "address",
          "name": "",
          "type": "address"
        }
      ],
      "stateMutability": "view",
      "type": "function"
    },
    {
      "inputs": [
        {
          "internalType": "address",
          "name": "token",
          "type": "address"
        },
        {
          "internalType": "uint256",
          "name": "amount",
          "type": "uint256"
        }
      ],
      "name": "emergencyRecoverToken",
      "outputs": [],
      "stateMutability": "nonpayable",
      "type": "function"
    },
    {
      "inputs": [],
      "name": "owner",
      "outputs": [
        {
          "internalType": "address",
          "name": "",
          "type": "address"
        }
      ],
      "stateMutability": "view",
      "type": "function"
    },
    {
      "inputs": [
        {
          "internalType": "uint256",
          "name": "amount",
          "type": "uint256"
        },
        {
          "internalType": "address",
          "name": "freelancer",
          "type": "address"
        },
        {
          "internalType": "string",
          "name": "invoiceId",
          "type": "string"
        }
      ],
      "name": "pay",
      "outputs": [],
      "stateMutability": "nonpayable",
      "type": "function"
    },
    {
      "inputs": [],
      "name": "platformFee",
      "outputs": [
        {
          "internalType": "uint256",
          "name": "",
          "type": "uint256"
        }
      ],
      "stateMutability": "view",
      "type": "function"
    },
    {
      "inputs": [],
      "name": "platformWallet",
      "outputs": [
        {
          "internalType": "address",
          "name": "",
          "type": "address"
        }
      ],
      "stateMutability": "view",
      "type": "function"
    },
    {
      "inputs": [
        {
          "internalType": "uint256",
          "name": "_fee",
          "type": "uint256"
        }
      ],
      "name": "setPlatformFee",
      "outputs": [],
      "stateMutability": "nonpayable",
      "type": "function"
    },
    {
      "inputs": [
        {
          "internalType": "address",
          "name": "_newWallet",
          "type": "address"
        }
      ],
      "name": "setPlatformWallet",
      "outputs": [],
      "stateMutability": "nonpayable",
      "type": "function"
    },
    {
      "inputs": [],
      "name": "version",
      "outputs": [
        {
          "internalType": "string",
          "name": "",
          "type": "string"
        }
      ],
      "stateMutability": "pure",
      "type": "function"
    }
  ],
  "bytecode": "0x6080604052609660005534801561001557600080fd5b50604051610a05380380610a058339810160408190526100349161008d565b6001600160a01b03811661005b5760405163e6c4247b60e01b815260040160405180910390fd5b600180546001600160a01b039092166001600160a01b03199283161781556002805490921633179091556003556100bd565b60006020828403121561009f57600080fd5b81516001600160a01b03811681146100b657600080fd5b9392505050565b610939806100cc6000396000f3fe608060405234801561001057600080fd5b506004361061009e5760003560e01c80638831e9cf116100665780638831e9cf1461012157806389a30271146101345780638da5cb5b14610167578063bc063e1a1461017a578063fa2af9da1461018357600080fd5b806312e8e2c3146100a357806326232a2e146100b857806354fd4d50146100d45780636b31a8ae146100fb578063790201941461010e575b600080fd5b6100b66100b13660046106cd565b610196565b005b6100c160005481565b6040519081526020015b60405180910390f35b60408051808201825260058152640322e302e360dc1b602082015290516100cb91906106e6565b6100b6610109366004610750565b6101e8565b6100b661011c3660046107d7565b610592565b6100b661012f366004610801565b61065a565b61014f73833589fcd6edb6e08f4c7c32d4f71b54bda0291381565b6040516001600160a01b0390911681526020016100cb565b60025461014f906001600160a01b031681565b6100c16101f481565b60015461014f906001600160a01b031681565b6002546001600160a01b031633146101c0576040516282b42960e81b815260040160405180910390fd5b6101f48111156101e3576040516358d620b360e01b815260040160405180910390fd5b600055565b60035460011461020b5760405163558a1e0360e11b815260040160405180910390fd5b600260035560008490036102325760405163162908e360e11b815260040160405180910390fd5b6001600160a01b0383166102595760405163e6c4247b60e01b815260040160405180910390fd5b336102775760405163e6c4247b60e01b815260040160405180910390fd5b604051636eb1769f60e11b815233600482015230602482015273833589fcd6edb6e08f4c7c32d4f71b54bda0291390600090829063dd62ed3e90604401602060405180830381865afa1580156102d1573d6000803e3d6000fd5b505050506040513d601f19601f820116820180604052508101906102f59190610823565b905085811015610318576040516313be252b60e01b815260040160405180910390fd5b60006127106000548861032b9190610852565b610335919061086f565b905086811115610358576040516358d620b360e01b815260040160405180910390fd5b60006103648289610891565b6040516323b872dd60e01b8152336004820152306024820152604481018a90529091506000906001600160a01b038616906323b872dd906064016020604051808303816000875af11580156103bd573d6000803e3d6000fd5b505050506040513d601f19601f820116820180604052508101906103e191906108a4565b905080610401576040516312171d8360e31b815260040160405180910390fd5b821561049e5760015460405163a9059cbb60e01b81526001600160a01b039182166004820152602481018590529086169063a9059cbb906044016020604051808303816000875af115801561045a573d6000803e3d6000fd5b505050506040513d601f19601f8201168201806040525081019061047e91906108a4565b90508061049e576040516312171d8360e31b815260040160405180910390fd5b60405163a9059cbb60e01b81526001600160a01b0389811660048301526024820184905286169063a9059cbb906044016020604051808303816000875af11580156104ed573d6000803e3d6000fd5b505050506040513d601f19601f8201168201806040525081019061051191906108a4565b905080610531576040516312171d8360e31b815260040160405180910390fd5b876001600160a01b0316336001600160a01b03167f5ca0318fec11113f54b21da4a2d56791792f29b5fee77253d1c640ad64371f878b868b8b60405161057a94939291906108c6565b60405180910390a35050600160035550505050505050565b6002546001600160a01b031633146105bc576040516282b42960e81b815260040160405180910390fd5b60025460405163a9059cbb60e01b81526001600160a01b0391821660048201526024810183905260009184169063a9059cbb906044016020604051808303816000875af1158015610611573d6000803e3d6000fd5b505050506040513d601f19601f8201168201806040525081019061063591906108a4565b905080610655576040516312171d8360e31b815260040160405180910390fd5b505050565b6002546001600160a01b03163314610684576040516282b42960e81b815260040160405180910390fd5b6001600160a01b0381166106ab5760405163e6c4247b60e01b815260040160405180910390fd5b600180546001600160a01b0319166001600160a01b0392909216919091179055565b6000602082840312156106df57600080fd5b5035919050565b600060208083528351808285015260005b81811015610713578581018301518582016040015282016106f7565b506000604082860101526040601f19601f8301168501019250505092915050565b80356001600160a01b038116811461074b57600080fd5b919050565b6000806000806060858703121561076657600080fd5b8435935061077660208601610734565b9250604085013567ffffffffffffffff8082111561079357600080fd5b818701915087601f8301126107a757600080fd5b8135818111156107b657600080fd5b8860208285010111156107c857600080fd5b95989497505060200194505050565b600080604083850312156107ea57600080fd5b6107f383610734565b946020939093013593505050565b60006020828403121561081357600080fd5b61081c82610734565b9392505050565b60006020828403121561083557600080fd5b5051919050565b634e487b7160e01b600052601160045260246000fd5b80820281158282048414176108695761086961083c565b92915050565b60008261088c57634e487b7160e01b600052601260045260246000fd5b500490565b818103818111156108695761086961083c565b6000602082840312156108b657600080fd5b8151801515811461081c57600080fd5b84815283602082015260606040820152816060820152818360808301376000818301608090810191909152601f909201601f19160101939250505056fea2646970667358221220b55c09a81072503234608de6e5058a955d715b62db751a1a6abde54e5ea31fce64736f6c63430008140033",
  "linkReferences": {},
  "deployedLinkReferences": {}
}